:100000000C9435000C945D000C945D000C945D0024
:100010000C945D000C945D000C945D000C945D00EC
:100020000C945D000C945D000C945D000C945D00DC
:100030000C945D000C945D000C945D000C945D00CC
:100040000C94CB050C945D000C9499050C947305ED
:100050000C945D000C945D000C945D000C945D00AC
:100060000C945D000C945D00520611241FBECFEF6E
:10007000D8E0DEBFCDBF11E0A0E0B1E0ECECF2E1F2
:1000800002C005900D92AE39B107D9F725E0AEE96F
:10009000B1E001C01D92AA37B207E1F710E0C5E355
:1000A000D0E004C02197FE010E944A09C433D10761
:1000B000C9F70E9456060C9464090C940000AF9294
:1000C000BF92CF92DF92EF92FF920F931F93CF9345
:1000D000DF936C017B018B01040F151FEB015E01A7
:1000E000AE18BF08C017D10759F06991D601ED913C
:1000F000FC910190F081E02DC6010995892B79F7DB
:10010000C501DF91CF911F910F91FF90EF90DF908C
:10011000CF90BF90AF900895FC01538D448D252F53
:1001200030E0842F90E0821B930B541710F0CF9691
:10013000089501970895FC01918D828D981761F0C3
:10014000A28DAE0FBF2FB11D5D968C91928D9F5FDA
:100150009F73928F90E008958FEF9FEF0895FC01B9
:10016000918D828D981731F0828DE80FF11D858D6C
:1001700090E008958FEF9FEF0895FC01918D228DFF
:10018000892F90E0805C9F4F821B91098F73992784
:1001900008958DED94E00E94BD0021E0892B09F4C3
:1001A00020E0822F089580E090E0892B29F00E94C2
:1001B000C90081110C9400000895FC01A48DA80FC2
:1001C000B92FB11DA35ABF4F2C91848D90E0019699
:1001D0008F739927848FA689B7892C93A089B189B9
:1001E0008C9180648C93938D848D981306C00288C3
:1001F000F389E02D80818F7D80830895EF92FF92B7
:100200000F931F93CF93DF93EC01F62E81E0888F3D
:100210009B8D8C8D981316C0E889F989808185FFA4
:1002200011C0EE89FF896083E889F9898081806443
:10023000808381E090E0DF91CF911F910F91FF903B
:10024000EF9008950B8D10E00F5F1F4F0F73112774
:10025000E02E8C8D8E110CC00FB607FCFACFE8890A
:10026000F989808185FFF5CFCE010E94DD00F1CFB5
:10027000EB8DEC0FFD2FF11DE35AFF4FF0820B8F3A
:10028000EA89FB8980818062D3CFCF93DF93EC0131
:10029000888D8823B9F0AA89BB89E889F9898C916E
:1002A00085FD03C0808186FD0DC00FB607FCF7CF2A
:1002B0008C9185FFF2CF808185FFEDCFCE010E942A
:1002C000DD00E9CFDF91CF910895789484B5826005
:1002D00084BD84B5816084BD85B5826085BD85B5EA
:1002E000816085BDEEE6F0E0808181608083E1E899
:1002F000F0E01082808182608083808181608083D1
:10030000E0E8F0E0808181608083E1EBF0E08081D3
:1003100084608083E0EBF0E0808181608083EAE7A5
:10032000F0E080818460808380818260808380812E
:10033000816080838081806880831092C1000895ED
:100340003FB7F8948091A5019091A601A091A701D3
:10035000B091A80126B5A89B05C02F3F19F00196C2
:10036000A11DB11D3FBFBA2FA92F982F8827BC010F
:10037000CD01620F711D811D911D42E0660F771F37
:10038000881F991F4A95D1F708958F929F92AF9237
:10039000BF92CF92DF92EF92FF920E94A0014B0199
:1003A0005C0180E7C82E87E1D82EE12CF12C0E9459
:1003B000A001681979098A099B09683E7340810583
:1003C0009105A8F321E0C21AD108E108F10888EEEE
:1003D000880E83E0981EA11CB11CC114D104E10455
:1003E000F10429F7FF90EF90DF90CF90BF90AF908E
:1003F0009F908F9008952FB7F8946091A10170910C
:10040000A2018091A3019091A4012FBF08950F93A1
:100410001F93CF93DF9320919F012F5F322F37706F
:1004200030939F0120FF2BC020E831FD2064347001
:1004300009F02062205FFC01EC01239600E011E04E
:1004400064856623F1F070E0C8010E94CF086F5FF9
:100450006187322F369F030E30E0311D1124311198
:1004600012C01682662311F0615061873196EC1735
:10047000FD0731F7DF91CF911F910F91089520E093
:10048000D4CF60E0E5CF31503683ECCF4F925F920E
:100490006F927F928F92AF92BF92CF92DF92EF9244
:1004A0000F931F93CF93DF933C01EB010E94A001B8
:1004B000F30127853089621B730B6A307105B0F335
:1004C000F894E881F9817BB170646BB16F7B6BB993
:1004D000CA848F812C2D281B822F2F83BF844A80B2
:1004E0005B801D850C85DE841F5F0F5FD3949E812A
:1004F0003885A984EB844181D20120E0C32F522F9B
:10050000322F3181442788943111380F08F43FEF9E
:100510008195889410FD430F4795889411FD430FF2
:100520004795889412FD430F4795889413FD430F18
:100530004795889414FD430F4795889415FD430F04
:100540004795889416FD430F4795889417FD430FF0
:1005500047958894232F1111242F8C0D422F002CA6
:100560007BB900C047FF6BB930812227889400C057
:1005700000C0002C6BB93111390F00C0002C7BB9C1
:1005800000C046FF6BB908F43FEF9195889400C016
:1005900000C0002C6BB900FD230F00C0002C7BB9FC
:1005A00000C045FF6BB92795889401FD230F00C05B
:1005B00000C0002C6BB92795889400C0002C7BB933
:1005C00000C044FF6BB902FD230F2795889400C03B
:1005D00000C0002C6BB903FD230F00C0002C7BB9B9
:1005E00000C043FF6BB92795889404FD230F00C01A
:1005F00000C0002C6BB92795889400C0002C7BB9F3
:1006000000C042FF6BB905FD230F2795889400C0F9
:1006100000C0002C6BB906FD230F00C0002C7BB975
:1006200000C041FF6BB92795889407FD230F00C0D8
:1006300000C0002C6BB92795889400C0002C7BB9B2
:1006400000C040FF6BB9432F0111422F9A0D00C02B
:1006500000C0002C6BB900C000C0002C7BB900C0EA
:1006600047FF6BB932812227889400C000C0002C5C
:100670006BB931113C0F00C0002C7BB900C046FFA4
:100680006BB908F43FEFEB0DF11D00C000C0002C6A
:100690006BB9D0FC230F00C0002C7BB900C045FF14
:1006A0006BB927958894D1FC230F00C000C0002CA3
:1006B0006BB92795889400C0002C7BB900C044FF1B
:1006C0006BB9D2FC230F2795889400C000C0002C82
:1006D0006BB9D3FC230F00C0002C7BB900C043FFD3
:1006E0006BB927958894D4FC230F00C000C0002C60
:1006F0006BB92795889400C0002C7BB900C042FFDD
:100700006BB9D5FC230F2795889400C000C0002C3E
:100710006BB9D6FC230F00C0002C7BB900C041FF91
:100720006BB927958894D7FC230F00C000C0002C1C
:100730006BB92795889400C0002C7BB900C040FF9E
:100740006BB9432FD110422FC19500C000C0002CBF
:100750006BB9CE0D00C000C07BB900C047FF6BB9BC
:1007600031812227889400C000C0002C6BB9311160
:10077000380F00C0002C7BB900C046FF6BB908F4ED
:100780003FEF8195889400C000C0002C6BB910FD2C
:10079000230F00C0002C7BB900C045FF6BB9279523
:1007A000889411FD230F00C000C0002C6BB9279561
:1007B000889400C0002C7BB900C044FF6BB912FDC7
:1007C000230F2795889400C000C0002C6BB913FD3F
:1007D000230F00C0002C7BB900C043FF6BB92795E5
:1007E000889414FD230F00C000C0002C6BB927951E
:1007F000889400C0002C7BB900C042FF6BB915FD86
:10080000230F2795889400C000C0002C6BB916FDFB
:10081000230F00C0002C7BB900C041FF6BB92795A6
:10082000889417FD230F00C000C0002C6BB92795DA
:10083000889400C0002C7BB900C040FF6BB9432FE7
:100840001111422F8C0D00C000C0002C6BB9119704
:1008500009F086CE20EE31E0D2010E942409DC01AD
:10086000CB01F4E0B695A79597958795FA95D1F7C2
:1008700030E020E0B901EAE94E9E040C611D5E9E65
:10088000600D711D1124650D711D860F971FA11D2F
:10089000B11D893E43E09407A105B10508F434C0B9
:1008A000885E9340A109B10942E0B695A795979556
:1008B00087954A95D1F747E0849F080E211D949FA4
:1008C000200D311D1124290F311D60919E0170E012
:1008D000860F971F820F931F4091A1015091A20193
:1008E0006091A3017091A401292F3327420F531F58
:1008F000611D711D4093A1015093A2016093A3015A
:100900007093A40180939E0178940E94A001F3014A
:10091000708B6787DF91CF911F910F91EF90DF90E0
:10092000CF90BF90AF908F907F906F905F904F90DF
:10093000089580E991E00895569A08950F931F93C2
:10094000CF93DF93CDB7DEB762970FB6F894DEBFD3
:100950000FBECDBF8C01F901DC011C968C917A830E
:1009600069835C834B835E834D8390819D879181F6
:100970009E8792819F878130F1F4CE0101960E947B
:10098000070283E0888B1A8A198AD801ED91FC91BD
:100990000484F585E02DBE016F5F7F4FC801099586
:1009A00062960FB6F894DEBF0FBECDBFDF91CF9138
:1009B0001F910F9108951C861B861A86198618862A
:1009C0001F82DFCF0F931F93CF93DF93CDB7DEB797
:1009D00062970FB6F894DEBF0FBECDBF8C01F90150
:1009E000DC011C968C917A8369835C834B835E83E4
:1009F0004D8390819D8791819E8792819F878130D1
:100A0000E9F4CE0101960E940702188A1A8A198A0F
:100A1000D801ED91FC910484F585E02DBE016F5F56
:100A20007F4FC801099562960FB6F894DEBF0FBEDE
:100A3000CDBFDF91CF911F910F9108951C861B862A
:100A40001A86198618861F82E0CF90E080E008950C
:100A5000FC01858596850895CF93DF9300D000D063
:100A600000D0CDB7DEB7AB011C821D821E82DC0137
:100A7000ED91FC910190F081E02D19821A821B8288
:100A80009E012F5F3F4FBE016C5F7F4F09952696F9
:100A90000FB6F894DEBF0FBECDBFDF91CF910895A2
:100AA000FC0101900020E9F73197AF01481B590B79
:100AB000E091DD04F091DE040280F381E02DBC01C1
:100AC0008DED94E00994CF93DF930E945005EC01E3
:100AD00082E591E00E9450058C0F9D1FDF91CF9120
:100AE00008950E945F091F920F920FB60F92112472
:100AF0002F933F934F935F936F937F938F939F9326
:100B0000AF93BF93EF93FF938DED94E00E94DD00D0
:100B1000FF91EF91BF91AF919F918F917F916F91D5
:100B20005F914F913F912F910F900FBE0F901F90AB
:100B300018951F920F920FB60F9211242F938F9337
:100B40009F93EF93FF93E091ED04F091EE04808189
:100B5000E091F304F091F40482FD1BC09081809138
:100B6000F6048F5F8F732091F704821741F0E091B4
:100B7000F604F0E0E352FB4F958F8093F604FF916B
:100B8000EF919F918F912F910F900FBE0F901F901B
:100B900018958081F4CF1F920F920FB60F921124F7
:100BA0002F933F938F939F93AF93BF938091A10116
:100BB0009091A201A091A301B091A4013091A00154
:100BC00023E0230F2D3758F50196A11DB11D209369
:100BD000A0018093A1019093A201A093A301B093DF
:100BE000A4018091A5019091A601A091A701B091C7
:100BF000A8010196A11DB11D8093A5019093A601A6
:100C0000A093A701B093A801BF91AF919F918F913D
:100C10003F912F910F900FBE0F901F90189526E8CF
:100C2000230F0296A11DB11DD2CFEDEDF4E013828A
:100C3000128288EE93E0A0E0B0E084839583A683DF
:100C4000B78382E291E09183808385EC90E0958781
:100C5000848784EC90E09787868780EC90E0918B86
:100C6000808B81EC90E0938B828B82EC90E0958B73
:100C7000848B86EC90E0978B868B118E128E138E70
:100C8000148E0895E0EDF1E08FEF808312821182DF
:100C9000148613868FEF9FEFDC0187839087A187EF
:100CA000B28708950E9415060C944206CF93DF93F5
:100CB000CDB7DEB7A3970FB6F894DEBF0FBECDBF9A
:100CC0000E946501E091ED04F091EE0482E08083E2
:100CD000E091ED04F091EE041082E091E904F091CE
:100CE000EA041082E091EB04F091EC0480E180834F
:100CF0001092F504E091F104F091F20486E0808313
:100D0000E091EF04F091F004808180618083E091B4
:100D1000EF04F091F004808188608083E091EF041B
:100D2000F091F004808180688083E091EF04F0917D
:100D3000F00480818F7D808385E591E00E946305CA
:100D40008091BC01811145C01092AE011092AD019D
:100D50008FEF8093B1018093B2018093B3018093B0
:100D6000B4018093B5018093B60181E08093B7010F
:100D70001092B9011092B8011092B0011092AF0117
:100D80008091CA019091CB01892B31F48BEA91E0DB
:100D90009093CB018093CA01E091A901F091AA013F
:100DA000309721F08BEA91E0958384838BEA91E080
:100DB0009093AA018093A9011092BB011092BA01ED
:100DC00084E491E09093AC018093AB0181E0809347
:100DD000BC01E091AB01F091AC010480F581E02D04
:100DE0008BEA91E009958DED91E09093AE018093AF
:100DF000AD0180E091E09093B9018093B801E0915A
:100E0000AB01F091AC010284F385E02D8BEA91E017
:100E10000995009701F19C0150E040E060E472E424
:100E20008FE090E00E9405098091D3019091D40158
:100E3000A091D501B091D60182179307A407B507F9
:100E400010F4DA01C9018093D3019093D401A093E7
:100E5000D501B093D60185E791E00E9463054E016C
:100E60001FE1810E911C05E5F02EE12C10EEC12E44
:100E700080E991E00E94630588E0E0E0F1E0DE01B6
:100E8000579601900D928A95E1F7FE0177969F01A2
:100E9000419151917C2D6F2D769F070E70E0711D51
:100EA00011246E2D14E6112321F0119F612D09F0FC
:100EB0006F5F862F90E0662399F08AEA870F31F002
:100EC000182F169F010E10E0111D812F9F2D971BCB
:100ED00031F0792F769F070E70E0711D972F112446
:100EE000BA01660F771F460F571FDA01A352BE4F94
:100EF0008C9311961C92119712969C938E169F06B6
:100F000009F0C6CF86E1E8E0F1E0DE01119601903C
:100F10000D928A95E1F7FE013196419151917C2D18
:100F20001F2D719F070E70E0711D11246E2D14E6A8
:100F3000112321F0119F612D09F06F5F862F90E042
:100F4000662399F08AEA870F31F0182F169F010E59
:100F500010E0111D812F9F2D971B31F0792F769F67
:100F6000070E70E0711D972F1124BA01660F771FCD
:100F7000460F571FDA01A352BE4F8C9311961C9255
:100F8000119712969C93E217F30709F0C6CFD09001
:100F9000D0018091D3019091D401A091D501B0915D
:100FA000D601892B8A2B8B2BD9F00E94A0010091AE
:100FB000CC011091CD012091CE013091CF01601B69
:100FC000710B820B930B0091D3011091D4012091EE
:100FD000D5013091D6016017710782079307C8F2D7
:100FE0000E94A0016093CC017093CD018093CE014B
:100FF0009093CF01E091DB01F091DC01309759F043
:101000004091D7015091D8016091D9017091DA01D6
:101010008D2D0995D82E0091CA011091CB014D2C30
:10102000512C712C612C0115110509F45BC0D801FC
:101030001C962C901C978091D1019091D2018436FE
:10104000910510F41C961C92D801ED91FC916281DF
:1010500073817BA36AA31F8E18A219A2DD2081F1E0
:10106000580176E0A70EB11CF0E0E0E0D5012D912B
:101070005D01222309F112963C903320E9F030E023
:1010800050E040E02F5F3F4F4F4F5F4FC301B20131
:101090000E94BF089B01AC01832D90E0B0E0A0E06E
:1010A000BC01CD016F5F7F4F8F4F9F4F0E94BF08E4
:1010B000D401AE0FBF1F8C933196E330F105B1F62A
:1010C000F80145855685628173819401C801EAA1C2
:1010D000FBA10995D8011C962C921C9714960D9192
:1010E0001C91A1CF8091C8019091C9018C010F5F23
:1010F0001F4F1093C9010093C80149978CF10E94BA
:10110000FB019B01AC01E8EEF3E00E9FB0010F9FE5
:10111000700D1E9F700D1124072E000C880B990B6B
:101120004090C4015090C5016090C6017090C70105
:1011300024193509460957090E94E3083093D20162
:101140002093D1011092C9011092C8010E94FB01A5
:101150006093C4017093C5018093C6019093C70149
:101160000E94C50160E070E0672B09F481CE0E9407
:10117000C900882309F47ACE0E94000077CEDB01F3
:101180008F939F930E942B09BF91AF91A29F800DD7
:10119000911DA39F900DB29F900D1124089597FB70
:1011A000072E16F4009407D077FD09D00E94360967
:1011B00007FC05D03EF4909581959F4F089570955A
:1011C00061957F4F0895A1E21A2EAA1BBB1BFD015A
:1011D0000DC0AA1FBB1FEE1FFF1FA217B307E40716
:1011E000F50720F0A21BB30BE40BF50B661F771F6E
:1011F000881F991F1A9469F760957095809590954E
:101200009B01AC01BD01CF010895052E97FB1EF493
:1012100000940E941C0957FD07D00E94E30807FCB8
:1012200003D04EF40C941C095095409530952195AF
:101230003F4F4F4F5F4F0895909580957095619502
:101240007F4F8F4F9F4F08950E945009B7FF089519
:10125000821B930B08950E945009A59F900DB49F87
:10126000900DA49F800D911D11240895AA1BBB1BF6
:1012700051E107C0AA1FBB1FA617B70710F0A61B96
:10128000B70B881F991F5A95A9F780959095BC01B7
:10129000CD010895EE0FFF1F0590F491E02D099404
:1012A000A29FB001B39FC001A39F700D811D1124A7
:1012B000911DB29F700D811D1124911D089581E033
:0C12C00090E0F8940C946409F894FFCFBF
:1012CC003A003B003C003D00F000F100F300F4005C
:1012DC005B005C005D005E00E800E700E6000000DB
:1012EC000000FE005F008C004501BD009B00AF00BC
:1012FC00000000007105710571052C0528052505F8
:10130C0000000000E2049E049C042C0528059904AE
:10131C0046020D0A005B494E464F5D20576F726CBA
:10132C0064636C6F636B20697320626F6F74696E9A
:10133C00672E2E2E005B494E464F5D20312E2043EA
:10134C006865636B696E67204C4544732E2E2E00C6
:0E135C00436C6F636B2052756E6E696E670096
:00000001FF
